:0D000E00900F317401F0900F30F0C20E22FF
:10E36600E4F5A8758911C28CC28D758AFF758C5F1C
:10E37600C28EC28F758BFF758DF775A88A900F5068
:10E38600F0900F5174FFF0900F5274B0F0900F534D
:10E3960074CFF0900F5474F2F0E4900F55F0900F94
:0BE3A6005F743FF0900F567401F022EE
:10CBFC0012000E12E366E4FB7DFB7F0212EAA37BBC
:10CC0C00017D01E4FF12ED4478C6A60C7E007F1E68
:10CC1C0012D50E7D407F0212F0667D117FD012F08E
:10CC2C0066E4FD7F2112F0667B217DFD7F2012EAF8
:10CC3C00A37B207DFF7F3A12EAA3E4FB7DDF7F3AE2
:10CC4C0012EAA30000000000000000E4FB7DFE7F60
:10CC5C002012EAA37D427F0212F0667D107FD01273
:10CC6C00F0667E007FC812D50E7E017FE112D50ED4
:10CC7C0012F0D412F0E27F0A12F02A7F0A12F02A84
:0BCC8C0012E87B7F0A12F02AD28C22F3
:10E14700E4FB7DFB7F0212EAA312DC2C7B407DFF00
:10E157007FEC12EAA312000EE478C1F67D407F3D02
:10E1670012F06612F0E27D267FA312F0667D367FFD
:10E17700A312F066E55F54E01313543FFB7DC77F9E
:10E187006D12EAA37B207DFF7FD212EAA302AD784E
:10DC2C007E007F1E12D50E7E007FC812D50E7E019F
:10DC3C007FE112D50E7D407F0212F0667E017FF7E8
:10DC4C0012D50EE4FD7F2112F0667B017DFD7F2055
:10DC5C0012EAA37E027F3912D50E7E327FE512C9FD
:10DC6C00737E0A7FD012D50E7E0A7FDA12D50E7E15
:0FDC7C000A7FD512D50E12E56A12F07902BA6747
:10AD7800789A76FFE478A1F6789EF678A0F6D20C59
:10AD8800D20AE55F5407FF7401C39F5003535FF86D
:10AD9800E55F5407FF64026003BF0303535FF8E5F0
:10ADA8005F5407FFBF0403535FF8E55F5407FFBF15
:10ADB8000503535FF812F01512AEB6D217E55F54CB
:10ADC8000714603814604C14607C14700302AE6081
:10ADD8001460402405600302AE9E12AEBF12F10952
:10ADE80012F0DBE4FB7DFC7FFF12EAA312F0F7E42C
:10ADF8007896F678A4F67E0A7F40801112AEBF12CC
:10AE0800AEA112F0DB789676017E0A7F6C12D50E21
:10AE180002AE9EC21712AEA17F0A12F02A7BFF7AF9
:10AE280007798412E446E55F5407FF7896BF020469
:10AE38007602805276057A0779A312AEAE7A077940
:10AE4800A412E446804012AEB67BFF7A07798512D9
:10AE5800E44678967603802EC21712F1097F0A120B
:10AE6800F02A7A07798812AEAE7A07799F12E446FB
:10AE78007BFF7A0779A012E4467BFF7A077986126E
:10AE8800E446789676047E0A7F8412D50E7B017D8F
:10AE98001F7F4212E5F102EEB612F109E4FB7DFCD8
:10AEA8007FFF12EAA3227BFF12E4467BFF2212F106
:10AEB800097F0A12F02A227BFF7A07798312E44677
:01AEC8002267
:10E99C00E55E20E325D20FE56F20E30330E5065357
:10E9AC006FF712ED8712E147C209D214C2127895A3
:0DE9BC00760212EE06E4FF02EA79C20F2295
:10C22500C11201BF0001C00001C10001BD0001BE76
:01C235000008
:10EE9A0078A8E6FE08E6FF22E49378A926FFE4189C
:0CEEAA00362278A926F61874FF36F622EE
:10B39600200F0302B4B320090302B4B378A1E6FF79
:10B3A600700302B4B3F4700302B4B33012227F1FE9
:10B3B60012B4B5C41313540378C046F6E50C6007FF
:10B3C600E4FD7F1F12F066E50C54C0600378BF06EB
:10B3D6007401C378BF96500302B4907F0112B4B5CE
:10B3E60054FC78C046F6E50C6007E4FD7F0112F0D8
:10B3F60066E50C5460600478BF0606E55F54076096
:10B406000302B490E50C30E70578BF06807C7B200C
:10B416007D7F7F3D12EAA37F0112F02A7B017D0129
:10B426007F3D12ED44E50C541F78C1F6D3941040CD
:10B4360059789FE67054760112CC9778BDE630E7CE
:10B44600047B208002E4FB7DDF7FCA12EAA378BD7D
:10B45600E6547FF65407C43354E0441CFD7FC912FA
:10B46600F06678BDE65418131313541F4404FB7D8D
:10B47600FC7FCA12EAA3E4FB7DDF7F3D12EAA37DCF
:10B48600407F3D12F066E478C1F67401C378BF963A
:10B49600500C12BE957F0212EA79C210D3223010E8
:10B4A6000C7895E6B4020678BFE6600116C3227BE7
:09B4B600017D0112ED44E50C22B8
:10EC9700750C05E4F50D750E22788BE6F50F18E671
:10ECA700F510E4F5117F0C12E4D9E4FB7D077F2E04
:03ECB70002EAA3CB
:10DEFE008E288F29AD297F9A12F066E528540F449B
:10DF0E0020FB7DF07F9B12EAA37F0812DBCCE4FDA1
:10DF1E007F0112F0667F0812DBCC7F0812DBCC7B10
:10DF2E00017D017F0112ED44E50C6007E4FD7F01E8
:10DF3E0012F066E50C5460600612EC977F012253D6
:05DF4E000C037F00221E
:109E2A00E478ABF6FB7D027F9A12ED44E50D540F00
:109E3A00F50E850C0F78A6F608A60F08A60E08A63A
:109E4A000FE55F5407600764016003029ED5C3787B
:109E5A00A7E6948C18E69406506CE4FB7D027FD149
:109E6A0012ED44E50C04FD7FD112F066AD0D7FD2F0
:109E7A0012F066E50C2402FFE433FEE4FCFDC004A4
:109E8A00A905AA06AB0778A6E6FE08E6FFE4D00015
:109E9A0012873DE42FFFEE3480FEE43DFDE43CFCF6
:109EAA00C006C007E50C2403FFE433AB07FAE4F964
:109EBA00F8D007D0061287C878A6EEF608EFF6089B
:109ECA00A60608F68088748012EEAC12EE9A78A67E
:109EDA00A60608A607E478AAF612EE9A12DEFEEFA4
:109EEA0060037F0222E50C5403FF6026E50C78A983
:109EFA0030E10BE624E0FD18E634FFFC8008E62496
:109F0A0020FD18E436FC78A8A60408A60578AB0656
:109F1A008003EF600978AA06E6C3940E40BBE50CFD
:109F2A00540360037F012212EE9AC378A796EE18B3
:109F3A00965020EF24FCFFEE34FFFE12DEFEEF60A7
:109F4A00037F0222E50C54036002802074FE12EEA5
:109F5A00AC802B78A9E62404FF18E436FE12DEFE54
:109F6A00EF60037F0222E50C5403600812EE9A1296
:109F7A00DEFE800A78A9740226F618E436F67B60BB
:109F8A007D0F7F9912EAA3900A3612EEA2FE12DE24
:109F9A00FEEF60037F0222E50C54036033E50C9068
:109FAA000A3630E10C12EEA2CF24FFCF34FFFE8036
:109FBA000A12EEA2CF2401CF3400FE12DEFEEF60B9
:109FCA00037F0222E50C540360037F01227F0022F3
:029FDA007F0006
:019FDC002262
:10CC970078A2E6FC08E6FD7E607F001286E88E0C2F
:10CCA7008F0D78BD760E789DE6FFE4FCFDFE7BF8E0
:10CCB7007A307906780312873DC006C007AE0CAFFD
:10CCC7000DAB07AA06E4F9F8D007D0061287C87893
:10CCD7001412886B8F0E750F04E50ED3950F401154
:10CCE700E50E13F50E78BD16E50ED3950F50EA80C5
:10CCF7001EE50E25E0FFE433FED3EF950F7480F8B1
:10CD07006E98500BE50E25E0F50E78BD0680CAAF8C
:10CD17000E7E007C007D031286D6EEC313EF13D37D
:0BCD2700950F500678BDE64480F62210
:0AF0B8000900E0787878808080007D
:10C23600C11302B5000002B7000002B9000002BB3C
:02C246000000F6
:1096830078BCE62401FF18E436FEC3EF1896FFEE1C
:109693001896FE78BBF608EFF67881E6FC08E6FD3F
:1096A300C3EF9DEE9C22FF18E436C4F854F0C8EFD4
:1096B300C4540F48547022E50D540FF50E850C0F5A
:1096C300E554787B26FFE41836CF248022AF13AE0F
:1096D30012AD11AC1022E4FFFEFDFC78A912889DA7
:1096E300C302885AE92DFFE43CCF241EFDE43FFC6E
:1096F300EB2406FFEA33FED3ED9FEC9E22C3EF9BE0
:10970300FFEE9AFEED99FDEC98FC22E47B02FAF958
:10971300F80287C8750C06E4F50D750E7522FE7800
:109723008CE6F97A002FFFEA3EFEAB52C3EF9B2291
:1097330078B9E6F53308E6F53408E6F53508E6F5D5
:109743003622C3EF9BF50FEE9AF50EED99F50DEC6E
:1097530098F50C2278A912889DD302885AED9FFFB1
:10976300EC9ECF2401F6E43F18F6E4F53222AB0772
:10977300FAE4F9F8AE0EAF0FFCFD02873D853B3FDF
:10978300853A3E85393D85383C855433227891E6C8
:10979300FFC395532212889DEB2FFFEA3EFEE93D5E
:1097A300FDE83CFC22E4FFE51AFEE519FDE518FCA3
:1097B3000288AAED24FAFFEC34FFCFC39BCF9AFEB5
:1097C30022AB3FAA3EA93DA83C2218E436540FFD24
:1097D30018E622AF1BAE1AAD19AC1822C3EF9BFFDC
:1097E300EE9AFEED99FDEC98FC227898E6FE08E6E9
:1097F300FBAA06E4F9F8224BF511751208E4F513F8
:1098030075147B22AB43AA42A941A840C302885ADC
:10981300FCC3E5369534FBE5359533FA2278B1126E
:10982300889178AD2278A912889178B122AF0FAED2
:109833000EAD0D78AD0288AA540FFBECC4F854F0BA
:10984300C8ED22E4FB7A80F9F8C302885A1896FE21
:10985300D3EF94FFEE94002278BCE6FF7882E6C350
:109863009FFF22FFE6FC08E6FDD39FEC9E22F5183E
:10987300751901F51A7F0C22E4F53FF53EF53DF528
:109883003C227882E6FF78BCE6C39F22C374409FE4
:06989300FFE49400FE2238
:10DFFC00E4FD7F0112F066E4FD7F1F12F0667547A9
:10E00C003C7548197F0112F02A7F7F12E04530E001
:10E01C0003D547F07F0112E0456007E4FD7F011254
:10E02C00F066E50C546360047FFC800AE5477004DD
:08E03C007FFD80027F008F0CC4
:0BE04400227B017D0112ED44E50C225F
:10EAF400754732E4FD7F1F12F066E4FB7D017F1F42
:10EB040012ED44530C017F0112F02AE50C7007AF9B
:06EB1400471547EF70E415
:01EB1A0022D8
:02B009008F4076
:10B00B00E4FB7D027F5112ED441296BAF542EF3408
:10B01B00FFF541AF42129771C006C0071297EDD0F2
:10B02B0007D0061287C8AD07AC06E5422402FFE441
:10B03B003541129721F542EE9AF5411296E74005FC
:10B04B001297B680047E007F01AC06AD075340FC1F
:10B05B001297178D0F854210E54112983B1296B34C
:10B06B001297FA8540158540168540171298711274
:10B07B00E4D912DFFCE50C6002FF22E4FB7D047FC8
:10B08B008012ED44E50D540FF512850C13E50F54AA
:10B09B000FF514850E15E5134512600CE51324FF0F
:10B0AB00FFE51234FFFE80047E007F0078B5A60614
:10B0BB0008A607E5154514600CE51524FFFFE514FC
:10B0CB0034FFFE80047E007F0078B7EEF608EFF6C3
:10B0DB004E70037FF82278B5E6FE08E6FFD37406C0
:10B0EB009FE49E40087512007513068022EF788747
:10B0FB0026FFEE1836CF24FFCF34FFFED378B8E609
:10B10B009F18E69E4009EEF608EFF68E14F51575BE
:10B11B000C06E4F50D750E7885130F851510E512E9
:10B12B00C454F02514F511E4F5127F0C12E4D97F09
:01B13B000013
:01B13C0022F0
:02B70B008F406D
:10B70D00E4FB7D027F5112ED441296BAF542EF34FF
:10B71D00FFF541AF42129771C006C0071297EDD0E9
:10B72D0007D0061287C8AD07AC06E5422402FFE438
:10B73D003541129721F542EE9AF5411296E74005F3
:10B74D001297B680047E007F01AC06AD075340FC16
:10B75D001297178D0F854210E54112983B1296B343
:10B76D001297FA854015854016854017129871126B
:10B77D00E4D912DFFCE50C6002FF22E4FB7D047FBF
:10B78D008412ED44E50F540FF510850E11E50D549F
:10B79D000FF50E850C0FD374FF950F7407950E5092
:10B7AD00037FF8227B017D017F0412ED44E50C54EB
:10B7BD000CFFBF08167403250FF50FE4350EF50EBB
:10B7CD0074032511F511E43510F5107E00E50F25F4
:10B7DD0052FFEE350EFEC3EF9487EE9400400AEF54
:10B7ED002479FFEE34FFFE80047E007F0078B9A639
:10B7FD000608A6077E00E5112552FFEE3510FEC3A3
:10B80D00EF9488EE9400400AEF2478FFEE34FFFEAB
:0FB81D0080047E0F7FFF78BBA60608A6077F007A
:01B82C0022F9
:02F0AA008F34A1
:0BF0AC0012B009EF7005AF3412B70B73
:01F0B7002236
:10E940008F47E5476027E4FB7D047F8812ED44E5AF
:10E950004725E025E0FF240CF8A60F740D2FF8A63C
:0EE960000E740E2FF8A60D740F2FF8A60C22C1
:10D1A0007D287F7E12F066E4F543F542F541F540B7
:10D1B00002D21AE4F545F546AD467F7D12F066AD24
:10D1C000447F7F12F06612DFFCE50C6002FF227FD5
:10D1D0000112E9401296D0129807501C851343851E
:10D1E0001242851141851040854645AF43AE42ADA0
:10D1F00041AC401298464013E546700575460180E3
:10D20000B7E546B4010575460280ADE4FFFEFDFCBE
:10D21000129807700BE544B47B0675447702D1B3CE
:02D220007F008D
:01D2220022E9
:02D223008F403A
:10D22500E4F541F546F545F544F543AF4112B94AF4
:10D23500E54070047F7780027F7B8F427D077F9E6C
:10D2450012F06612EAF4AD427F7F12F06612EAF43C
:10D25500E4F54112EAF47F0112E9401296D0AB469B
:10D26500AA45A944A843C312885A500FE4F546E5D8
:10D2750012F545E511F544E510F5430541E541C3D2
:10D28500940440CFE4FD7F9E12F06612DFFCE50CAE
:10D295006006FFE4FCFDFE22AF46AE45AD44AC435F
:01D2A5002266
:027EEA008F32D5
:107EEC0012987BF53BF53AF539F53812B0098F331A
:107EFC00E53330E7012274102532F53275340A125D
:107F0C00817430E701221296835017C3ED78BC962A
:107F1C00FFEC12985040047FFF800312985B8F3562
:107F2C008019C379BCE7788296FF19E71298504004
:107F3C00047FFF8004129885FF8F357881E6FA085C
:107F4C00E6FB7C007D03FFAE021286E8C3EF95359D
:107F5C00EE94005011C378BCE69B18E69A50047F4F
:107F6C00FA80027FFB227401C39535504EE5351320
:107F7C0013543F2535F535C379BCE778829619E75C
:107F8C0018965018C374B29554C3953550037FFAA4
:107F9C0022E5352554F5541281668016E55424B239
:107FAC00C3953550037FFB22C3E5549535F5541228
:107FBC00816D1534E5346003027F0BE53470037F6B
:107FCC00FD22E4F5367534107535FFAF3412B94A1D
:107FDC0012817430E716B4F80BE534B470028032B9
:107FEC0074208037AF5512B94AAF332212968350A2
:107FFC000A12985BC374809FFF80061298852480B8
:10800C00FF8F33E533C395355003853335E534B4F1
:10801C007007AF5512B94A800974102534F5340233
:10802C007FD77481C39535500B155412816D7536FD
:10803C0001027FD17480D395354016E5366006E594
:10804C0035647F600C0554128166E5367003027F3F
:10805C00D185553485543712D1A0EF60037FFF22B0
:10806C007D307F7E12F0667F0112D2238F3B8E3AD9
:10807C008D398C38E4FF12D2238F3F8E3E8D3D8C90
:10808C003C7FE07E047D077C00AB3BAA3AA939A873
:10809C0038D312885A50237FE07E047D077C00A8D9
:1080AC0038C312885A400302813F7F807E847D1E34
:1080BC007C001297C412885A407912987BE53724B9
:1080CC00FEFF7480C39F40077480D39537401F75A3
:1080DC00548012DB6C1298991281581297C4C312F7
:1080EC00885A5003129780E53704F554800B853776
:1080FC005412DB6C1298998024AF3BAE3AAD39AC7C
:10810C00381297C4C312885A5003129780E537244B
:10811C00FE6554600D155412989912DB6C1281583F
:10812C0080D785335485345512989912DB6CAF5532
:10813C0012B94A741CD3955440047FFB800D74E42F
:0B814C00C3955450047FFA80027F00AE
:1081570022E4FF12D2238F3B8E3A8D398C382212BC
:10816700989912DB6C2212DB6C12989922AF3212AB
:07817700B70B8F33E5332243
:10E28200D21385522885532912979050058F531225
:10E29200C7777EF07FB812D50E12C3C28F27E5274B
:10E2A20020E707AF0C12B82D8F27E52720E7097862
:10E2B200A1E6FF12E848800C85285285295312DB1B
:0BE2C2006C12C77712F0F7C213AF27F1
:01E2CD00222E
:02B82D008F3258
:10B82F0012F0AA8F33E53330E70122E4F533753296
:10B83F00017891E678891296C7CF34FFFE78B5125A
:10B84F00969E402C7890E678891296C7CF34FFFEEB
:10B85F00D3EF9DEE9C501478B6E62480FF7889E6EE
:10B86F00FEC3EF9EF55312C7778023433302800345
:10B87F00433301E53260147886E6FE08E678B712A6
:10B88F009866400778B612976080A64333047532E6
:10B89F0001E5541313543F788426FFE41836FE78DD
:10B8AF008DE67C002FFFEC3ECF2460CF34FFFE7877
:10B8BF00B912969E4063788CE6FFD394805015E5BD
:10B8CF0052FBC3ED9BFBEC9400CB24B2F50DE43B94
:10B8DF00F50C80048C0C8D0DE5541313543FFE783A
:10B8EF008426FDE41836FCEF7A002DFDEA3CCD24CA
:10B8FF0060CD34FFFCD3ED950DEC950C501678BA56
:10B90F00E624A0FF7884E6FDC3EF9DC39EF5521297
:10B91F00DB6C80244333108003433308E53260151A
:10B92F007881E6FE08E678BB129866400878BA126E
:0AB93F00976002B8A0433320AF3335
:01B9490022DB
:10C3C2007F3012B009EF30E7012278B6E6184670E6
:10C3D2000A7F5012B009EF30E70122E4F532AF32A2
:10C3E20012B70BEF30E7012212973312C47A30E70B
:10C3F200012278B9E6FC08E6FDC3E5349DE5339CED
:10C4020040068C338D348011C3ED9534FDEC9533A9
:10C41200FCC374089DE49C40077490D3953250CBC2
:10C422007480C3953250037FF922129733E5322488
:10C4320028FF12B70BEF30E70122C379BCE778BAC5
:10C4420096FD19E71896129813EB6D7002EA6C606C
:10C452001EED2403FDE43C129813C3EB9DEA9C50AD
:10C462000E74A0D39532400712C47A30E7BC22E59D
:07C47200322410F50C7F00DD
:0DC479002274102532F532FF12B70BEF22AE
:10E1E600D21385532812979050058F5312C7777E06
:10E1F600F07FB812D50E12C3C28F27E52720E70796
:10E20600AF0C1272448F27E52730E707AF5512B9D6
:10E216004A800778A1E6FF12E84812F0F7E528657C
:0DE2260053600685285312C777C213AF2737
:01E2330022C8
:027244008F3287
:1072460012F0AAEF60037FFF2212971778BAE6249E
:1072560005F50F78BCE62409F510E624091297CD4A
:1072660024051296A94DF511E4F5127F0C12E4D906
:107276007D307F7E12F06678A91288B60000000085
:1072860078A6767B78A8760118760178A7E6FD7F42
:107296007D12F06678A6E6FD1275AB6002FF227FCE
:1072A6000112E9401296D01296DE50161296D07848
:1072B600A91288AA78A7E608F608128891129846B5
:1072C600401478A7E6FFB40104E4F680BEEF70062A
:1072D60078A7760280B51296D9700D78A6E6B47BAB
:1072E6000778A6767702728A1296D970037FF822FB
:1072F600E53278A846FD7F7D12F066753264AD32C0
:107306007F7E12F0667F781275966002FF227F01FB
:1073160012E9401296D078AD1288AA78AD128891FB
:1073260078B11288AA78A91288B6000000007D05F7
:107336007F9E12F06612EAF47D777F7F12F0661266
:10734600EAF4E478A6F612EAF47F0312E94012970B
:10735600D61296DE501678A91297A812982012888F
:10736600AA78A6E633333354F878A8F678B112979C
:10737600A878A606E6C3941040CC12DFFCE50C60A4
:1073860002FF22E4FD7F9E12F06678A8E6FF7006F3
:107396007E7C7F7C8004EF24FCFF78A7EFF6FB78E9
:1073A600B11288B60000000078A67602AF03127507
:1073B600966002FF227F0112E9401296D078B11240
:1073C60088AA129820129759400B78B112889DC04E
:1073D6000078AD800978AD12889DC00078B112881A
:1073E60091D00012970012970EC004C005C006C0C7
:1073F6000712982012979878A912889DEF2BFFEE16
:107406003AFEED39FDEC38FCD003D002D001D000B5
:107416001297DFC004C005C006C00712982812974D
:1074260059400B78A912889DC00078B1800978B1BF
:1074360012889DC00078A9128891D0001297001278
:10744600970EA804A905AA06AB07D007D006D00553
:10745600D004129745FC12983078A8E6FF18F6EF8C
:1074660070047F7C800678A8E624FCFF78A8A6072F
:1074760078A7E6FFB47C067E007F008004EF240434
:10748600FF78A7EFF612B94A7F0112F02A7D77122C
:1074960075AB6002FF227F0312E94078B112889132
:1074A600129757400B78B112889DC00078A98009C1
:1074B60078A912889DC00078B1128891D0001297E1
:1074C6000012970EC004C005C006C0071298281205
:1074D6009798EF251BFFEE351AFEED3519FDEC35B5
:1074E60018FCD003D002D001D0001297DFC004C030
:1074F60005C006C0071297D612975778A9401612EC
:107506008891C3EF951BFFEE951AFEED9519FDECDC
:107516009518FC801412889DC3E51B9BFFE51A9AFB
:10752600FEE51999FDE51898FC12970EA804A90521
:10753600AA06AB07D007D006D005D0041297457827
:10754600AD128891AB0FAA0EA90DA80CD312885ABA
:107556004019AC0C12983078A7E6FF70067E7C7F47
:107566007C8004EF24FCFF78A8A60778A61612985C
:10757600281288AA1297D678A91288AA78A6E66051
:0F7586000302747678A8E6F555FF12B94A7F0024
:107595002212B94A7F0112F02A7D777F7F12F066A9
:1075A50012DFFCE50C227F7F12F06612DFFCE50C92
:0175B50022B3
:1088DB00D21385522B85532C85542D85552E1297EB
:1088EB00905007EF14F55312C777755280E554D3A8
:1088FB0094804005752F80800385542FE52FC3137B
:10890B00F9F404FFC374409F788CF678A1E6FF75E9
:10891B00F00AA424A8F582E5F03407F583E493FC70
:10892B00740193FD7883A60408F6EFC394175005E2
:10893B00750C02801078A1E6C3942C5005750C05BC
:10894B008003750C037E00ED250CFFEE3CCF24FA63
:10895B00CF34FFFEE9FDC374409DFDE49400FCC3DE
:10896B00EF9DFFEE9CFE7883F608EFF68E30F53127
:10897B0012DB6C128B1F12C3C28F29850C2AE529BF
:10898B0020E75C5354FCE554652D6003129899AFB6
:10899B002A127EEA8F29E52930E711E554652D600F
:1089AB003E852B52852D54129899803078BAE62447
:1089BB00C0FF7884E6FEC3EF9EFFE554C313FEC3EE
:1089CB00EF9EF552788DE6FFC3955250048F52807F
:1089DB000B788CE6FFD3955240028F5212DB6CE57D
:1089EB002920E71CAF2A1272448F29E52930E710A2
:1089FB00852E55AF5512B94AE529B4F803E4F5298C
:108A0B00E52920E709AF2A12B82D8F298006852C7E
:108A1B005312C777E52FC313FFF404FEC374409EB4
:108A2B00788C666003028B017883E6FC08E6FD65B3
:108A3B00317003E5306C602BE6FEC3E5319EFEC35F
:108A4B00E5529EF55212988FE53124CECBE53034AA
:108A5B00FFCB2FF6EB3E18F6C3744E95524480F5C0
:108A6B000F801BE52FC313FF12988FED24CEFDEC67
:108A7B0034FFCD2F7884F6ED3E18F6E4F50F750C28
:108A8B0004750DAE78A1E614F50E7480C3955250A3
:108A9B0021E5522480FFC3940A5046E5522480FD01
:108AAB00E434FFFC7884ED26F618EC36F6EF250F50
:108ABB00802A7480D39552402874809552FFC394BA
:108ACB000A501EE552FDC374809DFDE49400FCC367
:108ADB007884E69DF618E69CF6EF4480F50F755208
:108AEB00807B007A00790C12E4467F1012F02A7812
:108AFB008C764E12DB6CAF5512B94AE52920E7078D
:108B0B0078A1E6FF12E848128B1FC213AF5512B9BA
:038B1B004AAF2935
:108B1E0022E4FD7F0112F066E4FD7F1F12F0662253
:10E0F500D21385532812979050058F5312C7771264
:10E10500A3368F27E5286553600685285312C77700
:10E11500E527600812EED212F0F7802175563275A8
:10E125005832755932755A32755B32755C32755D88
:10E135003212BA6712C2F612E9F612EB90C213AFA9
:01E1450027B2
:01E1460022B6
:10A33600E4F52FF52D85562F75563212C2F67EF0AE
:10A346007FB812D50E7F4012F0AAEF60037FFF227E
:10A356007F0112A4D360037FFF227460D3950C4063
:10A36600037FFF22850C2C7D207F0212C547EF60FC
:10A37600037FFF227460D3950C40037FFF22E52CF8
:10A38600D3950C4004AF0C8002AF2C8F2C7D207F20
:10A396000412C547EF60037FFF227460D3950C401B
:10A3A600037FFF22E52CD3950C4004AF0C8002AF4F
:10A3B6002C8F2CE52C24E054FCF52CFF12F0AAEF90
:10A3C60060037FFF2212F0F7E4F52E752904752A43
:10A3D60030AF2912A4D360037FFF22850C2C74F2C0
:10A3E600C3952C5021E52C240EF52BE4FBAD2BAFA9
:10A3F6002912CABAEF6036E4FB7D04AF2912CB5BA3
:10A40600EF602A02A4BF74F2D3952C402074F29513
:10A416002CF52B7B01FDAF2912CABAEF600F7B0129
:10A426007D04AF2912CB5BEF600302A4BF852C2B02
:10A43600E4FDAF2912C547EF60037FFF22850C2C90
:10A44600740AC3952C5006E4FB7D08802D7402C364
:10A45600952C5009E52C24FEFDE4FB801D7402D3E7
:10A46600952C401DE52C700AE52D70067B017D06B6
:10A476008008C37402952CFD7B01AF2912CB5B804B
:10A4860006E52B64F260327408C3952A502274F3F1
:10A49600C3952B401B74F1D3952B50147403C395AD
:10A4A6002C400D7401D3952C5006752D01752A0884
:10A4B600152AE52A600302A3D7E529C313F5296007
:0CA4C6000302A3D4852F5612C2F67F00BB
:08A4D200227D2012C547EF2294
:10C547008D30BF01047D028009BF02047D01800296
:10C557007D007F7D12F066750C0912971A78BAE68E
:10C567002406F50F78BCE62408F510E62408129790
:10C57700CD24061296A94DF511E5307035750F805B
:10C58700F51075111278B5E6FE08E6FFC374099F2A
:10C59700E49E500A7C007D097E007F098008EF2415
:10C5A700FFFFEE34FFFE8F12E51204F513E4F514D6
:10C5B700801A78B6E604F51278B8E604F513E6248F
:10C5C700011297CD24011296A94DF514E4F5157FB4
:10C5D7000C12E4D9E53070047D0180027D217F7F54
:10C5E70012F06612DFFCE50C60037FFF227B017D02
:10C5F700017F8812ED44E5307003630CFF7F002252
:10CABA008B30E5306047E4F530EF30E013E566D3BC
:10CACA009D4007E5669DF5668006E4F566433001FC
:10CADA00EF30E113E567D39D4007E5679DF5678071
:10CAEA0006E4F567433002EF30E260E568D39D4023
:10CAFA0007E5689DF5688053E4F568804BEF30E000
:10CB0A0016C374FF9566D39D4007ED2566F56680CA
:10CB1A00067566FF433001EF30E116C374FF95676F
:10CB2A00D39D4007ED2567F56780067567FF43309B
:10CB3A0002EF30E216C374FF9568D39D4007ED25D6
:10CB4A0068F56880067568FF43300412C2F6AF3094
:01CB5A0022B8
:10CB5B008B30E5306047E4F530EF30E013E569D317
:10CB6B009D4007E5699DF5698006E4F56943300151
:10CB7B00EF30E113E56AD39D4007E56A9DF56A80C6
:10CB8B0006E4F56A433002EF30E260E56BD39D407B
:10CB9B0007E56B9DF56B8053E4F56B804BEF30E055
:10CBAB0016C374FF9DD395694007ED2569F5698020
:10CBBB00067569FF433001EF30E116C374FF9DD357
:10CBCB00956A4007ED256AF56A8006756AFF433062
:10CBDB0002EF30E216C374FF9DD3956B4007ED2532
:10CBEB006BF56B8006756BFF43300412D324AF30AB
:01CBFB002217
:106EAC001E1EF0F0E1E10F0FF10E0EF1F10E0EF1DE
:106EBC007384AC8A25439DDF0400030002000000AC
:106ECC00FE0FFA0FF60FF20FEC0FE60FE00FD90FD3
:106EDC00D20FCA0FC30FBB0FCA0FE00FF70F13006F
:106EEC00310054007800A100CB00FA0028015B01AE
:106EFC008D01C301F7012E02790472046804550454
:106F0C00400425040704E203BD0391036503340325
:106F1C000303CE0299026302B90FAB0F9F0F980FB8
:106F2C00910F8D0F8B0F8B0F8C0F8F0F930F980F63
:106F3C009E0FA50FAD0FB40FF90FF90FF80FF50F4A
:106F4C00F30FF00FEC0FE80FE20FDD0FD70FD10F9F
:106F5C00CA0FC40FBE0FB70FF60F0E002700450067
:106F6C0063008500A700CE00F60020014A017901DC
:106F7C00A601D601040235022F0428041F041004B4
:106F8C00FE03E703CE03AF038F0369034403190326
:106F9C00EF02C10293026302E20FD10FC20FB60FD0
:106FAC00AC0FA40F9F0F9B0F990F9A0F9B0F9D0F68
:106FBC00A10FA50FAB0FB10FED0FED0FEB0FE90FFD
:106FCC00E60FE30FDF0FDB0FD70FD20FCC0FC80F7D
:106FDC00C30FBE0FB90FB50F250042005C007D003A
:106FEC009B00BD00DE00030127014E0174019B01D3
:106FFC00C201EB0111023A02DC03CA03C403B6035B
:10700C00A8039403810368034E0331031303F102B5
:10701C00D002AB028802600212000700F50FE40FE9
:10702C00D70FCC0FC20FBA0FB40FAF0FAD0FAC0F01
:10703C00AB0FAC0FAE0FB10FE00FE90FE70FE70F7F
:10704C00E30FE20FDE0FDB0FD70FD30FCF0FCC0FF9
:10705C00C90FC60FC40FC30F5D0074008D00AA00CA
:10706C00C600E50004012401440167018601A90161
:10707C00CA01ED010D022E027A036C0367035A0359
:10708C005003400331031E030B03F302DD02C20263
:10709C00A7028A026D024D02490037002500150037
:1070AC000700F90FED0FE30FDA0FD30FCE0FC90F57
:1070BC00C60FC30FC20FC20FD60FE10FE00FE10FC7
:1070CC00E00FE00FDD0FDC0FDB0FD90FD70FD70F61
:1070DC00D50FD60FD50FD70F7F009400AB00C5008E
:1070EC00DE00F900140132014E016C018801A70188
:1070FC00C401E201FE011B02400331032C031F03F8
:10710C0017030903FC02EB02DA02C602B3029B026C
:10711C0085026B02520236026B005A0049003B009A
:10712C002B001E0013000700FD0FF50FEE0FE70FED
:10713C00E20FDD0FDB0FD80F000000000000000095
:10714C000000000000000000000000000000000033
:10715C000000000000000000110030005000700022
:10716C009000B000D000F00010013001500170010F
:10717C009001B001D001F001EF03D003B0039003F4
:10718C007003500330031003F002D002B0029002DF
:10719C0070025002300210020000000000000000DB
:1071AC0000000000000000000000000000000000D3
:1071BC000000000000000000F90FF90FF90FF90FA3
:1071CC00F90FF90FF90FF90FF90FF90FF90FF90F73
:1071DC00F90FF90FF90FF90FF60FF60FF60FF60F6F
:1071EC00F60FF60FF60FF60FF60FF60FF60FF60F6B
:1071FC00F60FF60FF60FF60F2E042E042E042E04A7
:10720C002E042E042E042E042E042E042E042E04E2
:10721C002E042E042E042E04E20FE20FE20FE20FD6
:10722C00E20FE20FE20FE20FE20FE20FE20FE20FCA
:08723C00E20FE20FE20FE20F86
:10E72E0013AEE0323C3232323232320038026560A1
:10E73E0014000013AEF080808080808000000A07F5
:10E74E0007000600032213AED0332E2E2A343228B1
:09E75E0036360000000000000046
:10C2480002830000028800000281000002860000CC
:10C25800027A0000028A0000028E000001800001BC
:0EC268009100019000018D00018C0001850005
:10AC26001287C88F178E168D158C14AB17AA16A906
:10AC360015A8147FF07ED87DEB7C131287C88E0E84
:10AC46008F0F740ED3950F7406950E22E493F55B61
:10AC5600A3E493F55CA3E493F55DA3E493F55EA307
:10AC6600E493F55FA3E493F560A3E493756100F5BF
:10AC760062A3E493F563A3E493F564A3E493F56513
:10AC8600227898E6FE08E6FBAA06E4F9F822AF4227
:10AC9600E4FCFDFEAB4AAA49A948A84702873DFF46
:10ACA600E433FEAD127C001286D67D640286E87817
:10ACB6007AE6FE08E6FFE4FCFDFB7A60F9F8028717
:10ACC6003DC294D294D29522787AE6FE08E6FFE455
:10ACD600FCFD7B62FAF9F802873D7B007A00790C6D
:10ACE6002290E74CE493F56CA3E493F56DA3E4930B
:10ACF600F56E22F535ED34FFF5347880E62FFFE466
:10AD060033CF22850E0C850F0D85424185434022A7
:10AD1600C3740E950FF50F7406950EF50E2274F298
:10AD2600250FF50F74F9350EF50E221287C8E47B50
:10AD360004FAF9F80287C890E731E493F556A3E4DC
:10AD460093F557221287C88F4A8E498D488C472221
:10AD5600750C06E4F50D750E9022750C05E4F50DDF
:10AD660022D3E50D950FE50C950E221313543F24BF
:02AD7600582261
:10EF250020190BE4900F39F0900F3C04F022900F5C
:0AEF3500397401F0E4900F3CF02263
:10EEB600536C1F12AD56F50F751001E56C333333E5
:0CEEC60054F8F511E4F5127F0C02E4D9B9
:0CD091008E298F2A8C2B8D2C8A2D8B2E43
:10D09D00E4F52F7B107DFB7F5D12EAA3C2957B012A
:10D0AD00E4FD7F6412EF5FE52A252FF582E4352933
:10D0BD0012D10D70F212ACC7C2957B01FD7F6512C6
:10D0CD00EF5FE52C252FF582E4352B12D10D70F293
:10D0DD0012ACC7C2957B01FD7F6612EF5FE52E2571
:10D0ED002FF582E4352DF583E493FF12F007052F1C
:10D0FD00E52F70E912ACC77B047DEF7F5D02EAA3DB
:0DD10D00F583E493FF12F007052FE52F22B4
:04E04F008E288F295F
:10E053003019067B807DFF8004E4FB7D7F7F5A12AD
:10E06300EAA37B687DB77F5D12EAA3C2957B01E4D7
:10E07300FD7F6712EF5FE4F52AE529252AF582E49F
:10E083003528F583E493FF12F007052AE52AC394A4
:0FE093000840E612ACC77B887D1F7F5D02EAA3C1
:08DAA6008E298F2A8C2B8D2C98
:10DAAE007B0112DAE3E52A252DF582E4352912DA17
:10DABE00F940F212ACC77B0312DAE3E52C252DF503
:10DACE0082E4352B12DAF940F212ACC77BC47DFC2E
:05DADE007F1C02EAA319
:10DAE3007DFC7F1C12EAA3C2957B01E4FD7F1D121E
:10DAF300EF5FE4F52D22F583E493FF12F007052D84
:06DB0300E52DC394802211
:10DB6C00788CE6F9E552C3995015E9C39552FFE458
:10DB7C009400FEC37884E69FF618E69EF68952E57B
:10DB8C00541313543F788426FFE41836CF24E0F561
:10DB9C0015EF34FFF5147F0412DBCC12AD60750E5B
:10DBAC000685150FE514F510E4F5117F0C12E4D978
:10DBBC00C3E552788C962406F518FD7F8D02F0662D
:10C77700E4FB7D7F7F3112EAA37891E614FFC3952E
:10C78700535023E5532403C39FFD7F8C12F0667833
:10C7970091E6FF7E00788926FDEE1836CD247F12BC
:10C7A700ACF9247F801B7D037F8C12F066AF537E2C
:10C7B70000EF788926FDEE1836CD248012ACF924D7
:10C7C70080F537EF34FFF5367F0212DBCC750C04AA
:10C7D700750D01750E3885370F751005E4F5117560
:10C7E700120A853513E534F514E4F5157F0C12E4C8
:10C7F700D97F0212DBCCE4FD7F0112F066E4FD7FF6
:10C807001F12F066301213300910E4FD7F3D12F05D
:0AC81700667B807D7F7F3112EAA36B
:01C8210022F4
:10989900E554787B26FFE41836CF2480F546EF346B
:1098A900FFF545FEAF4612ACBCC006C00712AC8737
:1098B900D007D00612AD4A7F8E129A9B7F3D129A2D
:1098C9009B7D407F3D12F066E478C1F6750C017509
:1098D9000DF4F540F541F54475420712AC947B52FD
:1098E9007A4A790378001287C88F437402D3954363
:1098F900503912AC94C007AF43AB07E4FAF9F8D07A
:109909000712AC265010C3742212AC4B40030299C3
:109919006812AD24800D740112AC4A500302996893
:1099290012AD1612AD67400312AD0905437402D397
:109939009543503B12AC94C007AF43AB07E4FAF927
:10994900F8D00712AC26500FC3742212AC4B400258
:10995900800D12AD248010D3740112AC4B50051246
:10996900AD0F801712AD1612AD67400312AD090590
:10997900427435C3954240030298E4E546154670A2
:109989000215457F0412DBCC7D8C7FC912F0667D00
:10999900207FCA12F0667D187FCB12F06612AD6087
:1099A900750ED7750F0FF510F5117F0C12E4D9124A
:1099B900AD60750ECCE545F50F854610751105E4CA
:1099C900F5127513DBE54024FEF514E54124FEF597
:1099D90015E4F5167F0C12E4D912EEEE7F0A12F0A7
:1099E9002A7DFC7FC912F0667D217FCA12F0667D4F
:1099F900177FCB12F0667F0112DBCC12ACB5C00623
:109A0900C00712AC87D007D00612AD4A78BDE66010
:109A19003C30E7047B208002E4FB7DDF7FCA12EA49
:109A2900A378BDE6547FF65407C43354E04418FDC7
:109A39007FC912F06678BDE65418131313541F44F6
:109A490004FB7DFC7FCA12EAA37D1580107D1C7F73
:109A5900C912F0667D117FCA12F0667D167FCB129E
:109A6900F0662013057F0112DBCC789FE660057F45
:109A79000212F02AE4FD7F0112F066E4FD7F1F1255
:109A8900F06630120C3009097B207DDF7F8E12EAE7
:019A9900A329
:099A9A0022E4FB7DDF12EAA322A5
:02B94A008F4725
:10B94C0012ACB5C006C00712AC87D007D006128760
:10B95C00C88F4E8E4D8D4C8C4B53477CE547543CD9
:10B96C00F54AE5471313543FF5477404C395475004
:10B97C0006741D954750047F808014740DD3954731
:10B98C00500B7415C3954740047F8080027F008F55
:10B99C0048740CC395475006741D954750047F019D
:10B9AC0080027F008F49E54A25E045484249E47F03
:10B9BC00877E01FDFCAB4EAA4DA94CA84B12873DCE
:10B9CC007B407A42790F78001287C88F4A7420C363
:10B9DC00954A400474208003C37440954AFF8F4AF3
:10B9EC00E547C3954A4007E547954AFF8006C3E5FE
:10B9FC004A9547FF8F48C3E552788C962406F50C80
:10BA0C00E5472406FFE433FEC3EF954A7480F86ED5
:10BA1C00985006E50C14FF8002AF0C8F4A7F04127D
:10BA2C00DBCC7406C39548500A741A954840047DC3
:10BA3C000080027D107F4E12F066AD4A7F8D12F0B1
:10BA4C0066AD497F9F12F0667F0212F02AE4FD7FFB
:0BBA5C000112F066E4FD7F1F02F0669F
:10BA67007464C3955650037556327464C395585021
:10BA7700037558327464C395595003755932746409
:10BA8700C3955A5003755A32750C09E4F50D750EB6
:10BA97005E750F7D75107D75117DE55F5418131365
:10BAA70013541F14601214601A240270218572192E
:10BAB70085731A85711B801F85751985761A85749C
:10BAC7001B801485781985791A85771B8009855914
:10BAD70019855A1A85581BE55F540770057512803A
:10BAE70080157432C39556E5564005244EFF8005F0
:10BAF700C3132468FF8F127432C39519E5194005E3
:10BB070013244B800312AD7112ACA58F137432C38B
:10BB1700951AE51A400513244B800312AD7112AC38
:10BB2700A58F147432C3951BE51B400513244B8066
:10BB37000312AD7112ACA58F12E4F5157F0C12E458
:10BB4700D97464C39557500375573212AD56750FA4
:10BB570080751001E55775F0D9A4FFAEF07C007D24
:10BB6700641286E8EF2426F511E4F5127F0C02E44F
:01BB7700D9F4
:10E56A00E55E546024C0601624E060202440702BCD
:10E57A007C0B7D0EAF05AE047A0B7B0E801A7C0CE9
:10E58A007D0EAF05AE047A0C7B0E800C7C0D7D0EE1
:10E59A00AF05AE047A0D7B0E02D091E4FB7DEB7FD2
:05E5AA005D12EAA3224E
:10F079007E6E7FACC21912E04FE4FB7D977F5D0283
:02F08900EAA3F8
:10DCE70078A1E66054F460517DC47F1B12F066E5AD
:10DCF70060146010146013146027240370297C6E6D
:10DD07007DC480277C6F7D4480217882E6B4000B38
:10DD170018E6B405067C717DC480107C6F7DC480D5
:10DD27000A7C707D4480047C707DC4AF05AE04120C
:0ADD3700DAA67DC77F1B12F06622FA
:10DDF500EFC3942D402DED30E71653057FED2F240D
:10DE0500D3FDD3947F40047DFF803B43058080365E
:10DE1500EF24D3FEEDD39E4005ED9EFD8028C3EE95
:10DE25009D8018ED30E71953057FC3742D9FFED3F0
:10DE35009D4005EE9DFD800EC3ED9E4480FD800650
:09DE4500C3742D9F2DFDAF0522D1
:10E5AF008F348D358B36E53630E71553367FE535AD
:10E5BF00C395364007E5359536FD80207D00801CDC
:10E5CF00C374FF9536FFE535C39F40067E007FFF7E
:10E5DF008008E5352536FFE433FEAD07AF3412F082
:02E5EF006622A2
:10C2F60075313212ACCEC006C00712AC87D007D05B
:10C306000612AD31E4F532F533746EC39F500A7BE5
:10C316009D75329C75339B80567464C39F500A7B0F
:10C326008A75328C75338A8046745AC39F500A7B4D
:10C336000175320175330280367446C39F500A7BFD
:10C346000675320575330580267430C39F5008E4A0
:10C35600FBF532F53380187426C39F500A7B0875A7
:10C36600320975330880087B02753205753304740B
:10C3760064C395565003755632AF567E007C007DD9
:10C38600091286D60D1286E88F31AD0312DDF5ABA4
:10C3960007AD32AF3112DDF58F32AD33AF3112DD7D
:10C3A600F58F33AD667FE012E5AFAB32AD677FE167
:0CC3B60012E5AFAB33AD687FE202E5AFEB
:10D32400E4F531F532F53312ACCEC006C00712ACC9
:10D3340087D007D00612AD31746EC39F500B753180
:10D344000A75330B75320B8037745AC39F500B75B3
:10D3540031057533077532058026743CC39F500927
:10D36400E4F531F533F53280177430C39F500875F6
:10D374003181E4F5338006E4F5317533817532810A
:10D38400AB31AD697FE312E5AFAB33AD6A7FE41235
:0BD39400E5AFAB32AD6B7FE502E5AF0B
:06F0F70012C2F602D32450
:02DBCC008F4F79
:10DBCE00755050755118E4FD7F1F12F066C211E4B6
:10DBDE00F50CF50DD28E30111EC211E50D540360F9
:10DBEE0008E4F50D7551188006E5516002155115C2
:10DBFE0050E5506002D28E7B017D017F1F12ED44F5
:10DC0E00E50C6007E4FD7F1F12F066E50C5403423D
:0DDC1E000DE54F520CE50C7004E55070B997
:01DC2B0022D6
:10E9F600750C0B750DAE750EE085560F8557108597
:10EA06005811855912855A13855B14855C15855DE9
:0CEA16001612ACE012E4467F1002F02A59
:10ED00007B087DE07FAE12E5F1850C56850D5785B9
:10ED10000E58850F5985105A85115B85125C851335
:02ED20005D2272
:10E96E00750C0A750DAE750EE8855E0F855F108508
:10E97E006011856212856313856414856515E4F54F
:0EE98E0016FB7A00790C12E4467F1002F02A84
:10ED22007B077DE87FAE12E5F1850C5E850D5F8580
:10ED32000E60756100850F6285106385116485120E
:02ED4200652248
:10EB9000750C09750DAE750EF085660F85671085CD
:10EBA0006811856912856A13856B1412ACE012E452
:06EBB000467F1002F02A6E
:10EED2007B067DF07FAE12E5F1850C66850D6785B8
:0CEEE2000E68850F6985106A85116B228F
:10ED8700750C07750DAE750EF8856C0F856D1085C2
:10ED97006E11856F1212ACE012E4467F1002F02A62
:10EFD3007B047DF87FAE12E5F1850C6C850D6D85A4
:06EFE3000E6E850F6F2287
:10E91100750C0C750DAE750ED085710F8572108555
:10E92100731185741285751385761485771585782D
:0FE931001685791712ACE012E4467F1002F02A27
:10EC28007B097DD07FAE12E5F1850C71850D72856B
:10EC38000E73850F74851075851176851277851387
:05EC480078851479221B
:10E84800EF602F7440C39F4029750C07750DACEF1E
:10E8580014FF25E025E0F50E85520F8553108554E9
:10E8680011E555547CF51212ACE012E4467F101203
:03E87800F02A2261
:10EB1B00EF60237440C39F401DEF1425E025E0FDFB
:10EB2B007B047FAC12E5F1850C52850D53850E5499
:07EB3B00E50F547CF55522A3
:10CDCA0012AD3DA3E493F558A3E493F559A3E49374
:10CDDA00F55AA312AC5290E744E493F566A3E493A0
:10CDEA00F567A3E493F568A3E493F569A3E493F5DF
:10CDFA006AA3E493F56B12ACE7A3E493F56F90E7AB
:10CE0A0057E493F571A3E493F572A3E493F573A33E
:10CE1A00E493F574A3E493F575A3E493F576A3E498
:10CE2A0093F577A3E493F578A3E493F5797AE77910
:10CE3A002E12CE5912F02A7AE7794112CE5912F0FF
:10CE4A002A7BFF7AE7795412E4467F1002F02A7BA4
:07CE5A00FF12E4467F1022E5
:10CA1800750C0B750DAEE4F50E750FFF7510FF75EF
:10CA280011FF7512FF7513FF7514FF7515FF751645
:10CA3800FFFB7A00790C12E4467F1012F02A750C7D
:10CA480007750DACE4F50E750F80751080751180B3
:10CA5800751201F529E52925E025E0F50E0529E5FA
:10CA68002924C2602014602B24FE600E04703075E7
:10CA78000FBC7510E57511E48022750FB17510DFD4
:10CA88007511E58017750F957510C77511C8751262
:10CA98007F800C750F827510C77511C275128012D0
:10CAA800ACE012E4467F1012F02A7440D395295066
:01CAB800A4D9
:01CAB900225A
:10E87B007B027DFE7FAE12E5F190E752E493B50C7F
:10E88B0007A3E493650D600B7F1012F02A12CDCA1B
:10E89B0002CA1812ED0012ED2212EED212EFD312B1
:03E8AB00EC282234
:10E7A0007E017FF712D50E200E10E4FD7F2112F0BE
:10E7B000667B017DFD7F2012EAA3E4FB7DFE7F04E2
:10E7C00012EAA3E55F5407FFBF05047B1080027BBC
:08E7D000007D0F7F2102EAA386
:10BE9500752878900F317401F07D407F0212F066AD
:10BEA5007D0F7F9912BF7DFB7DDF7F8E12EAA3E4B4
:10BEB500FB7D7F7F3112EAA3E4FB7DFC7FFF12EA65
:10BEC500A3E4FD7F0112F066E4FD7F1F12F066E436
:10BED500FD7F3D12F06612E7A07E327FE512C97341
:10BEE5007DFE7F6D12BF7DFB7DDF7F3D12EAA37D69
:10BEF500407F3D12F0667B017D017F3D12ED447F61
:10BF05000112F02A1528E5286005E50C20E6E7E48E
:10BF150078C1F6789FF678A1F6789A76FF789EF63E
:10BF250078A0F6C209D214C21278C1F678BDF6C25D
:10BF3500087896E6FF6402600AEF64036005EF6423
:10BF45000570347E0A7F8412D50E7896E67BFFB4A1
:10BF550003067A07798580047A07798412E446789E
:10BF650096E6B405127BFF7A0779A312E4467BFFB8
:07BF75007A0779A412E446EB
:08BF7C0022E4FB12EAA3E42217
:01F1030022E9
:10EFE900E570C454F0FBE4FD7F9912EAA37B207D10
:06EFF900FF7F9B02EAA36A
:10EDA70012AD3D90E73612AC5212ACE77BFF7AE723
:10EDB700792E12E4467F1012F02A12E9F602ED8747
:10DA3F00E55E5407F527E55F5407F5287407C3958E
:10DA4F00275003E4F52778C4760408760012EDA773
:10DA5F00E564F8E479C5F7E825E019F7E55E54F8D1
:10DA6F004527F55EE55F54F84528F55F12E96E121C
:10DA7F00BA6712C2F612EEB6E55F5407700A128843
:10DA8F00DBBFFC0478A176FE7F0112CE6112CA18AB
:07DA9F0078A1E6FF02EB1B7A
:10001E00050002420004019500080196421011806D
:10002E00F80900F600000000000006000E00800037
:10003E000401140019002208000204000400060046
:10004E00060006000102000200040004000600394A
:10005E0000000005003EC00E04014E0005005504D0
:10006E001004015D030401688806006C008300041F
:10007E0001700004015A0006008C0000000700C841
:10008E00040020180401EDE3040199000700D028B4
:10009E003735040D00D6F211007F300A043FFF8180
:1000AE000401E640040131600401EB060401FF0087
:1000BE000900A00FEF8B26352F000500FC000083F2
:1000CE0001FE00FFFFFFFFFFFF004A8B0000010152
:1000DE0001011E0C01010E241B78E88A019A585268
:1000EE008B281E5054FFFF806140614F6159714F44
:1000FE00814081598199A940000000FC00313727C9
:10010E0027204C43440A20202020000000FC004DF4
:10011E006F6E69746F720A2020202020000000FD8F
:10012E00002B55145C0E000A2020202020200000F9
:10013E0000FF003030303030310A202020202020C7
:10014E0000BD0401FC050500BC00008301BE00FFDC
:10015E00FFFFFFFFFF0026CD684600000000230CC6
:10016E00010381241D78EF0DC2A05747982712482E
:10017E004FBFEF008180818F6140615945404559E5
:10018E0031403159BC34009851002A401090130070
:10019E0068221100001E000000FF00300A202020FF
:1001AE002020202020202020000000FC004153347D
:1001BE0036333720202020202020000000FD00387C
:1001CE005518500E000A2020202020200006040181
:1001DE00BC05000401950008019642101180FC092F
:1001EE0000C000A322808068001B0020240C800524
:1001FE001020002000200520058004030C600C0058
:10020E000C040C040401202706003900210C040103
:10021E003A010401140005008C00000401150004CD
:10022E00011BC40700D02837330400050090C0021C
:10023E00060192030800000000000000000000000C
:10024E0000000002FC0326026C027C030D00030278
:10025E00FC0326026C027C030D000302FC03260243
:10026E00040214030D000302FC032602040214030D
:10027E000D000303C903FD01AF01BF03DE00090337
:10028E0000032A01B801C80311000302FC03260172
:10029E00B801C8030D000302FC032601B801C80310
:1002AE000D000302FC032601B801C8030D00030272
:1002BE007B029E01B401C402890004027B029E01EE
:1002CE00B401C402890004027A029D01B501C5027F
:1002DE0088000402FC0326026C027C030D0003025C
:1002EE00FC032602040214030D000302AF02D40223
:1002FE0004021402BE0004027B029E01FF020F02E2
:10030E00890004028102A401EF01FB028F000402A6
:10031E002C024A01F402040238000402AC02D1029B
:10032E0068027802BB0003027B029E026B027B0214
:10033E0089000501EC020702D102E101F700070175
:10034E00F4020F029102A101FF00070201021D0239
:10035E00680278020C000401C001D9026E027E010F
:10036E00CA000401E301FE029202A201EE000401A2
:10037E00F1020C031D032D01FC000701ED02080321
:10038E002A033A01F8000701BD01D60327033701FE
:10039E00C7000501AC01C1031D032D01B300070108
:1003AE009E01B4031E032E01A70004018F01A503B5
:1003BE001B032B01980004019001A60317032701CC
:1003CE00990004015E0172031F032F0166000401F0
:1003DE0053016603420352015B0009016401780375
:1003EE007B038B016C0004015E0172038A039A0188
:1003FE006600040185019B03A003B0018E00050178
:10040E004F016203A603B601570009019101A7032C
:10041E00DF03EF019A00040118012703EA03FA0132
:10042E001E00040178018C042104310180000401B6
:10043E0038014904240434013F0004012801390421
:10044E00210431012F0009012C013D042104310149
:10045E003300040108011704270437010E000401BC
:10046E0041015304D904E9014800040000000000D2
:10047E00000000000000000000000000000000006E
:10048E00000000000000000000000000000000005E
:10049E000000000000000000000000028204CE01F7
:1004AE00A201F1000000030217040101F2027D0017
:1004BE0000000301AC0334026A03110000000301C3
:1004CE004E028103120371000000030129023A0358
:1004DE0072039500000003011D0223039603D10051
:1004EE00000003010B020103D204110000000300FF
:1004FE00FB01E1041204C1000000030124022F04D9
:10050E00C205300000000305800500040000000055
:10051E00000580050004000000003F058005000472
:10052E00000000001F0580050004000000003F05CC
:10053E0080050004000000001F06200500040000D6
:10054E000000070580050004000000000705800577
:10055E0000040000000007058005000400000000F4
:10056E000705800500040000000007058005000354
:10057E00800000000705800500040000000007054C
:10058E00600500040000000007058005000400005F
:10059E0000001F0580050004000000000705E005AF
:1005AE000004000000000705B00500040000000074
:1005BE000705C005000400000000030580050004C7
:1005CE00000000000706600500040000000003069E
:1005DE006805000400000000070580050004000007
:1005EE0000000705800500040000000007058005D7
:1005FE000004000000000305800500040000000058
:10060E000706200500040000000007058005000411
:10061E00000000000705800500040000000007052B
:10062E0080050004000000000706600500040000BD
:10063E000000070580050004000000000705800586
:10064E000004000000000705800500040000000003
:10065E000705800500040000000007058005000462
:10066E0000000000070580050004000000000705DB
:10067E00800500040000000007058005000400004E
:10068E000000070580050004000000000705800536
:10069E0000040000000007058005000400000000B3
:1006AE000705800500040000000007058005000412
:1006BE00000000000705800500040000000007058B
:1006CE0080050004000000000705800500040000FE
:1006DE0000000705800500040000000007058005E6
:1006EE00000400000000000580050004000000006A
:1006FE0000058005000400000000000580050004D0
:10070E000000000000058005000400000000030545
:10071E0080050004000000000305800500040000B1
:10072E00000003058005000400000000030580059D
:10073E000004000000000305800500040000000016
:10074E000305800500040000000003058005000479
:10075E0000000000030580050004000000000305F2
:10076E008005000400000000030580050004000061
:10077E000000030000000000000000000000000068
:10078E00000000000000000000000000000000005B
:10079E00000000000000000000000000000000004B
:1007AE0000000320009002800098015E032000905C
:1007BE000280007F01900320009002800064015EA1
:1007CE00032000900280004B0190035000940280A1
:1007DE0000280190032000900280003D015E0384FA
:1007EE0000A202D0003E015E032000900280002590
:1007FE000190038400A202D000240190034000A0C7
:10080E000280003F015E034000A00280002C019098
:10081E0003A800B402D0002D0190032000900280A6
:10082E00005701E0032000900280002301E00360E6
:10083E0000A00280002A01E0034000A80280001FF1
:10084E0001E0034800B80280001301E00340008875
:10085E000280001C01E0040000C8032000180258AA
:10086E00042000D80320001B0258040000B003200F
:10087E0000520258041000B80320001D0258042034
:10088E0000F0032000180258041800D80320001EA0
:10089E000258048001200340002A027005400128FE
:1008AE00040000230300052000E0040000270300DD
:1008BE000530012004000028030005300118040053
:1008CE000023030005300113040000190300053056
:1008DE000110040000210300052001100400001F78
:1008EE000300056001300400002703000520010805
:1008FE0004000029032006400180048000230360C9
:10090E0005B001100480002A036605E00142048050
:10091E000023038405C001300480002903840708E6
:10092E0001A80500002703C005E80150046000324D
:10093E0003C00698016805000029040006C0017C6A
:10094E000500002A0400068001600500002804004E
:10095E000698018805000029040005E8015004608E
:10096E00002F040006C0018C0500003104B0000009
:10097E000000000000000000000000000000000069
:10098E000000000000000000000000000000000059
:10099E00000000000000038400A202D000110190AC
:1009AE00034800B40280001101E0042000F003208F
:1009BE000011025805400128040000110300060032
:1009CE00016004800011036005C001300480001135
:1009DE00038406C0018C0500001103C00698017C3B
:1009EE0005000011040006C0018C0500001104B0C2
:1009FE000520011004000011000005200110040064
:100A0E000011000004E0011E03A804AC00F703A8C7
:100A1E000510012003C00510012003C005E8015B8D
:100A2E0004600001010102030304050707070B0D13
:100A3E000E11050004004006004A001400000500D7
:100A4E0004004006004A00552004015280000500B3
:100A5E0004004006004A00572004015280000500A1
:100A6E0004100106004A00100004014E100401A3F8
:100A7E00360401B30F000500040C010401141E0618
:100A8E00004A00100004014E00000401040004019D
:100A9E00054005004A0014040152000004010540FF
:100AAE0005004A005504015280000401054005006E
:100ABE004A005704015280000401C0E0000401C046
:100ACE00000004016E800004016E000033016F9F70
:100ADE00EDABFFFFFFFF00000000FF000000FFFF77
:100AEE000000FFFFFF00FFFF8000C0C0C0808080BD
:100AFE007AB48156F06DCDF8D49FEDABB4F1BF0052
:100B0E000002030506080A0B0C0E0F11121415171E
:100B1E0018191A1B1C1D1E1F2021222324252627CF
:100B2E0028292A2B2C2D2E2F3031323334353637BF
:100B3E0038393A3B3C3D3E3F4041424344454647AF
:100B4E0048494A4B4C4D4E4F50515253545556579F
:100B5E0058595A5B5C5D5E5F60616263646566678F
:100B6E0068696A6B6C6D6E6F70717273747576777F
:100B7E0078797A7B7C7D7E7F80818283848586876F
:100B8E0088898A8B8C8D8E8F90919293949596975F
:100B9E0098999A9B9C9D9E9FA0A1A2A3A4A5A6A74F
:100BAE00A8A9AAABACADAEAFB0B1B2B3B4B5B6B73F
:100BBE00B8B9BABBBCBDBEBFC0C1C2C3C4C5C6C72F
:100BCE00C8C9CACBCCCDCECFD0D1D2D3D4D5D6D71F
:100BDE00D8D9DADBDCDDDEDFE0E0E1E2E3E4E4E518
:100BEE00E6E7E8E8E9EAEBECECEDEEEFF0F0F1F237
:100BFE00F3F4F4F5F6F7F8F8F9FAFBFCFCFDFEFF5A
:100C0E0000030507090A0C0E0F1113141617191AF3
:100C1E001B1D1E1F212223252627292A2B2C2E2F72
:100C2E003031323435363738393B3C3D3E3F40412A
:100C3E00434445464748494A4B4C4D4F50515253F9
:100C4E005455565758595A5B5C5D5E5F60616263DE
:100C5E006465666768696A6B6C6D6E6F70717273CE
:100C6E007475767778797A7B7C7D7E7F80818283BE
:100C7E00848485868788898A8B8C8D8E8F909191BE
:100C8E0092939495969798999A9B9C9C9D9E9FA0C3
:100C9E00A1A2A3A4A5A5A6A7A8A9AAABACACADAECC
:100CAE00AFB0B1B2B3B4B4B5B6B7B8B9BABABBBCDB
:100CBE00BDBEBFC0C0C1C2C3C4C5C6C6C7C8C9CAEF
:100CCE00CBCCCCCDCECFD0D1D1D2D3D4D5D6D6D706
:100CDE00D8D9DADBDBDCDDDEDFE0E0E1E2E3E4E520
:100CEE00E5E6E7E8E9E9EAEBECEDEEEEEFF0F1F23E
:100CFE00F2F3F4F5F6F6F7F8F9FAFAFBFCFDFEFF5F
:100D0E000005090C0F111316181A1C1E1F2123257E
:100D1E0026282A2B2D2E303133343537383A3B3CAA
:100D2E003E3F40424344454748494A4B4D4E4F5043
:100D3E0051535455565758595A5C5D5E5F60616207
:100D4E00636465666768696A6B6C6D6E6F707172ED
:100D5E00737475767778797A7B7C7D7E7F808182DD
:100D6E0083848585868788898A8B8C8D8E8F8F90DC
:100D7E00919293949596969798999A9B9C9D9D9EE9
:100D8E009FA0A1A2A2A3A4A5A6A7A7A8A9AAABACFF
:100D9E00ACADAEAFB0B0B1B2B3B4B4B5B6B7B8B81F
:100DAE00B9BABBBCBCBDBEBFBFC0C1C2C3C3C4C544
:100DBE00C6C6C7C8C9C9CACBCCCCCDCECFCFD0D171
:100DCE00D2D2D3D4D5D5D6D7D8D8D9DADBDBDCDDA1
:100DDE00DDDEDFE0E0E1E2E3E3E4E5E5E6E7E8E8D7
:100DEE00E9EAEAEBECEDEDEEEFEFF0F1F1F2F3F410
:100DFE00F4F5F6F6F7F8F8F9FAFAFBFCFCFDFEFF4F
:100E0E00FF0000FF0000FF00FF000000FFFF00FEDC
:100E1E00A2F0C1BC306F0A0AD24B22CCC31E18BF3F
:100E2E00FC306B8306644441831111060C44441656
:100E3E000A44441A1831161E18FFFC8BC9DC44589C
:100E4E006322A391791792B8BFFFE461B220C586E1
:100E5E000C5C31F47D17863FFFF33E9C419161831C
:100E6E00065333C2D7906D029FFFF0C1AE20C0C6AD
:100E7E006183060C66183060561C51060E730C16F4
:100E8E00730C0E0B862FFFA37320D473182B883090
:100E9E0060C183060C30CC308306F0C11640DFFEF5
:100EAE0097A5E945A411892F4BD2FFFF30566665F1
:100EBE000A0A331060733344E70B0761620C16168F
:100ECE001616183058405B0C0DFFC292C2A97A510B
:100EDE006904624BD2F4BFFFFF1C1BFFFFFE20CE46
:100EEE00E1836A0DFF104708B8BC31E823A050A378
:100EFE000C0B222E5FFF85436150C1B9860C102C5E
:100F0E0061BC306F0C1BC3045C5FF0DE183761846C
:100F1E0018F0706D2050BC882C34C31860C61B0CA2
:100F2E0022FFF84586391060C6690585F619C1B0ED
:100F3E00C1BC306F0C1BFFF840408F860DBB0C0DF3
:100F4E0021866622860C708B0C7B0CE0DFF0DD8632
:100F5E0070684067320ACCC2429CCC2429CCC28233
:100F6E006CCCDDC1BFFD2089C8AE0C0A0BE1441864
:100F7E003060C44183060C441A18C8ACC1BFFC6172
:100F8E009850830EC30AEC3034209CCC2429CCC25A
:100F9E00429CCC25B660DFFF08B8BC306F0C1BCC72
:100FAE00F4BC83747FFF9476160FE147E67A5E45B4
:100FBE00E18F45FFFC2E3B0B3F33F33D2F22F0C755
:100FCE00A2FFFF8EE7E67E67A5E45E18C18322C30B
:100FDE00037FF0D99850559B0C799E44141F20C165
:100FEE00CE618CCCCF33FFFFF1DC18BC8BC306AACD
:100FFE003E141BC97FFF40A78C33883060D860C376
:10100E000CE20C18761841836183061D8617FFA12A
:10101E008A669C18CD0D0818282C6184141416307D
:10102E00C20A0A4340E44990310BFFC1ACC189C3E7
:10103E00849050343872206B3062060A090A0A0A0C
:10104E000A0A0A090A0A060E7205FE52D905044159
:10105E009850828306630A418C2828383182C771E2
:10106E004830E64C33837FF8E3215C28710E441838
:10107E0030E4C3030C2E3882C2C3060C182C6186D2
:10108E00185FFE1173DDC1A1173845CE117322CC46
:10109E00C822CCFFFD41C3083070B074285983C5F7
:1010AE000C166CC50736620C16730C0A1EC85FFF51
:1010BE00F3F33925A90578605E83E641BFFFC88743
:1010CE003860BB830835C41835C41835C418319838
:1010DE0060C1831B0C2FFFFC22C30B860DC619C1EA
:1010EE00B0C1BC306F0C1117FC3718671116669A19
:1010FE00706845CC8B33082733208B33FFF0826129
:10110E008CC2098633086D983104066664101999ED
:10111E00C20339D86706FFF845CFF8EE2F0C1BC374
:10112E001F47A053FFFC886666182D3881C2C883FE
:10113E00060B0CC30A182C282C31860B0E1730C147
:10114E0061C14317FFE183611618F860DB4D035050
:10115E005A50C1C922220C10BFFF228E20C1A30CEF
:10116E0020E0B618183074170CC8211984050587AD
:10117E000C4144108BFFF18671420339D867068407
:10118E005CC822CCC822CCC83519FFFA49634D0A77
:10119E00927A49E925BB83502AC5FFE44459060AD1
:1011AE000A8830824183060B0C1414183060C14635
:1011BE00661830739060C63217FFCB991666459944
:1011CE0091667A5E8BC837FFF2964445911164445E
:1011DE005911111060C441830632083FFFCBC8BCC1
:1011EE008BC8B0C188B0C64547208053FFFE83052B
:1011FE00E882C34C320CC370C1B76181B860DE188F
:10120E0037FFFF8C33883060D860C1836183060D51
:10121E00860C18361830EE2FFFC3792FF86F0C7D21
:10122E001F20DA063FFFFFFFF8EE2FFFFFFFFA0643
:10123E003985938A630A985C9829883060C618307D
:10124E00630E1830584D9837FFD840503119850528
:10125E00111B090A062330A0A223612140C5860C6A
:10126E00459C14BFFFF30D5863CCCCF0C18CE83015
:10127E0060E0B8A0A5FFF3F0C5CA3335347C83789F
:10128E0028569259065837FF92F533D2F4BD2E19CF
:10129E002C31E1C17FFFE59864A18143267334B3FD
:1012AE003CCCC2866620C18C615FFFFF188C322257
:1012BE0022220C418883060C18883119860CB47FC3
:1012CE00FF97914B20A0B0BC1461C3E1010960A04F
:1012DE00A948289431FFFE1837186706C30622C3A3
:1012EE0019166644964441B217FF91104441830685
:1012FE0020C61C1491C3074536419062090A99C253
:10130E00AB3FFF08B88F45E18BC97A5E978506FF24
:10131E00FDD8606C203398505060C14141412198F6
:10132E005050505060C141414121985051BB206FE7
:10133E00FFC30568966183D862FC209CCC8B33205A
:10134E008B33FFFFC77106F0C1BC306F0C1BC30699
:10135E001DC5FFF845C5E183799E978414F0C61824
:10136E00322C8BFFFC8BC306E8F8403E3A5E97A505
:10137E00FFF0ACCC2B66E2CCC306A3860C961831DC
:10138E0016183063A0C7FF50D12868479C1B33083E
:10139E00E67A5E41B40C7FFFE2F08E6706CCC2297E
:1013AE0079141B0C640C102C81BFFE2F08E6706C98
:1013BE00CC2297914F0C1C1828205860DFFC2AEC89
:1013CE002BA5E45E1837882B449618F33FFFCCFA12
:1013DE00710645860C1B863E8FA2F0C7FFFA4E663D
:1013EE009599C7706CCF57106F0C196CFFFFFFFFEC
:1013FE00FE1C320F86872F20DE7CFE8DCC8351CCD7
:10140E0060AE20C183060C1830C330C20C1BC3045F
:10141E0059037FFA06148A520C61C31069270620FD
:10142E00C82E18E161C888821618FFFCC15999941C
:10143E002828CC4181CCCD139C2C1D858830585842
:10144E00585860C161016C3037FF9051851102B35D
:10145E0007270D0C44188307221A1428868E448100
:10146E00850A0DFFE183116183116186413060C1F0
:10147E0088B0C188B0C16145205112217FC37186E9
:10148E0071422E64116671DC18307A20C925906580
:10149E00217FC178EE0C1834E630CCC18C30673821
:1014AE005866620C1830608398403CC17FE1BC30B6
:1014BE006EC30831E0E0DA40A1791058698630C178
:1014CE008C361845FFF08B0C7220C18CD20B0BECB6
:1014DE00338361837860DE1837FFF080811F0C1B29
:1014EE0076181A430CCC450C18E11618F619C1BF24
:1014FE00E1BB0CE0D080CE641599848539984853B1
:10150E00998504D999BB837FFA4113915C181417FE
:10151E00C2883060C18883060C1888343191598393
:10152E007FF8C330A1061D8615D8606841399848EA
:10153E005399848539984B6CC1BFEBD0E261D2C30D
:10154E00877060CC3D86060E1E183067220C1BC3BA
:10155E001FFFC1A102850508E20A06090AC282829E
:10156E0042483030505051985050505060C1412137
:10157E002445FFE44446616183060C18C612182800
:10158E00311060C183321C50A0A0A2330811060A8C
:10159E0017FFC629125444D03A2208080E1C882C74
:1015AE002C2C31107591258297FFA1A070C1A168D6
:1015BE002E0C0A16C2C3061A0740C186160E16183E
:1015CE00182C60E16183060C16160DFFF6612140A2
:1015DE00C4CC2428189984C188243B41441C25324C
:1015EE000A0E1D2220E1490297FFD029E30CE20CDE
:1015FE0018361830C33883061D861060D860C18730
:10160E006185FFE86299A706334342060A0B18610B
:10161E000505058C30828290D03912640C42FFF0A1
:10162E006B306270E124140D0E1C881ACC18818266
:10163E008242828282828282428281839C817F94D4
:10164E00B6414110661420A0C198C290630A0A0EDA
:10165E000C60B1DC520C39930CE0DFFE38C8570A2F
:10166E001C4391060C3930C0C30B8E20B0B0C18321
:10167E00060B18618617FF845CF7706845CE1173F0
:10168E00845CC8B33208B33FFF5070C20C1C2C1DD3
:10169E000A1660F143059B3141CD9883059CC30228
:1016AE0087B217FF8C304850830E13142098633086
:1016BE0082618CC22C31C76185C306FFFC8873869C
:1016CE000BB830835C41835C41835C418319860C8B
:1016DE001831B0C2FFF831044C28289C40D0A0A08D
:1016EE00D060CC285306093391050519830585066C
:1016FE00305FF86E30CE222CCD34E0D08B9916664A
:10170E00104E66411667FFE104C31984130C661070
:10171E00DB3062080CCCC8203333840673B0CE0D98
:10172E00FFE30C20C4430C20B0C6342C98C1844176
:10173E00830C2C474170C441289063FFF221999885
:10174E0060B4E2070B220C182C330C2860B0A0B04A
:10175E00C6182C385CC30587050C5FFE45E1830D6A
:10176E000A1C152C3074B6496101496144E0DFFF53
:10177E0022208883060C30C61C15383060E82E19DE
:10178E00904233080A0B0E1882882117FFD34E0C95
:10179E008682B0B184050A1861413858C14C508216
:1017AE00614664C299837FFA49634D0A927A49E988
:1017BE0025BB83502AC5FFE44459060A0A883082A5
:1017CE004183060B0C1414183060C1466618307332
:1017DE009060C63217FFA508832641444820820830
:1017EE0018202C828882C390410324444491041013
:1017FE0037FFB3090A0626612140C4CC260C41C32B
:10180E00B4441C3A6441C3A4441CDC14BFFD984884
:10181E00503133090A0626141281884121481428B2
:10182E004C2820142828282824282838511102FF53
:10183E00FD060BD1058698641986E1836EC303708D
:10184E00C1BC306FFFE101023D867068C338830C66
:10185E00330C20C30CC30A30CE2B0CE0DFFE935AA0
:10186E004D6AF8EC30A441873080C1858631E0DFC7
:10187E00FF1DC54182F20C1831863860C50827332A
:10188E0022CCC822CCFFFF40C730B2714C61530B43
:10189E00930531060C18C3060C61C3060B09B3067B
:1018AE00FFFB080A062330A0A223612140C4661460
:1018BE0014446C242818B0C188B38297FFC18CE001
:1018CE00C1618182828283060A0A0A0A060C1414F6
:1018DE001414183050505050288282828294830300
:1018EE007FFE0CC38A183077106060EE20C18387AC
:1018FE00C302B8310585058502857906FFF30C1202
:10190E00674123428684873906090E73B0C2BB0C29
:10191E000DC306FFFC8985030513681A4434290498
:10192E0030C0C1814288662224E0C0A497FFE189BD
:10193E00983114384905083070E44183330620C1CC
:10194E008242828282C1428242828323902FFFF999
:10195E0098E733B081030511614141834C28283843
:10196E003070B22C8310BFFF0A0ACC2D90A84450C1
:10197E00C1619858343060B0F860B0F210287B83A3
:10198E007FF913831130C418C8914C820320C40A06
:10199E00148711127060524BFFF2599E1CB0826177
:1019AE008CC209863308B0C776181B860DFFFE6100
:1019BE00A18619C183196722A33220816459992BFC
:1019CE000C7FFF619C1A50A991060A3308B0C71804
:1019DE00661841830630A0C182C3341837FFFC302D
:1019EE00D342A4969A640C925A24B20C97FFFE1816
:1019FE0037080C0CCCCC30630B320C182C943060A6
:101A0E0050F860D87863FFF83383060C18CC30603A
:101A1E00C0C66183060C6618305867062053B0A006
:101A2E00AF20DFFF8507998598E0C8212F090E2C7E
:101A3E008384C418C387F660DFFF4D3832A0AC3004
:101A4E006090A143060A09F068A104C28CC98533CF
:101A5E0006FFFF0C1A38486060C18CC3060C330AAF
:101A6E000C183060E618306199860DA863FFF831C6
:101A7E002C2829AC2819320C1414101618C1828285
:101A8E00C3986090A4161882A11FFFC313214A4E5B
:101A9E002106220C18305930C0C183471060B0C1E6
:101AAE008306050C186185FFE61AE0C41591187BB4
:101ABE00220E1D2220E1DA220E1D32233C14BFFD20
:101ACE0027334ACCE3B83667AB8837860CB67FFF30
:101ADE002547C2B8EC30B860DBB0A06D075906CC14
:101AEE0037FFFFFFFFFFFFFFFFFFFFFFFFFFFEFFC1
:101AFE00EBD02F8286F10BA10B48387D20EFC7FF6C
:101B0E00EBD0FC2C23C2427A0909D20505D2063F3E
:101B1E001FFB836EC22ED076270E1061110DC201EF
:101B2E008186308B090866C3C57FEE0DD8403DB85F
:101B3E003028822C14431308326240E146260C12E0
:101B4E000E10330F15FFFE0D1DB081898420E6D0D7
:101B5E0074CC210407080884040C183B08628E0D0F
:101B6E00FFF83476100E18250383028CC18141A331
:101B7E0010308144260E0E120A0A60E851C1BFC20F
:101B8E0022C2098C19828862084210819028840C26
:101B9E000C0A0A1C38840C41D833086D31306FE1C1
:101BAE0011648202818202D8504038304848C2C146
:101BBE008384848585870E0A0A101281C161C42B25
:101BCE004C4C1BFFB1B30761D9B184844610101180
:101BDE008C21C87205051D830C6D828783FFFB1B4C
:101BEE003078298C6140A2662109B315839B070EBC
:101BFE001C29C2014289828783FFFCDFB08F1BF64E
:101C0E003F18FC21F8302FFFF9BF40FE1C7E309F9D
:101C1E00090FE0EBC1817FFFFFFFE11E31E937FFC6
:101C2E00FFFFFFFF08F18F4818FFFDB6DB6DB6DB37
:101C3E006DB6DB6DB6D89B6CCDB0606FFFDB6DB64D
:101C4E00DB6DB6DB6DB6DB6D89B6CCDB0606FFFF52
:101C5E00FFFFFE2A8303308086C182822C1FFFFF86
:101C6E00FFFFE2A8303308086C16115FFF6DB6DB7C
:101C7E006DB6DB6DB6DB610C19A510B416272FFF00
:101C8E006DB6DB6DB6DB6DB6DB610C19A510B4104D
:101C9E00264BFFFFFFFFF9E90858484081BFFFFFC1
:101CAE00FFFFE7A42161210206FFFDB6DB6DB6DB67
:101CBE006DB6DB6DB636C18182021B0C2084DFFF50
:101CCE00B6DB6DB6DB6DB6DB6DB6C6D830304043D5
:101CDE006184109BFFFFF081B7B6DEDB7B6DEDB745
:101CEE00B6DE3086FFABB20C103C3066F0C19BC343
:101CFE00066F0C19BC3066F0C4308D5DFFF6FDBF6B
:101D0E006FDBF6FDBF6FFABB20C103C3066F0C1964
:101D1E00BC3066F0C19BC3066F0C4308D5DFF6FDE1
:101D2E00BF6FDBF6FDBF6FFFBB9B62060C4DB6446B
:101D3E00DB644DB644DB644DB644D8308833B9FF0E
:101D4E00FFFFFFFFFFFFBB9F862F22F22F22F22FF6
:101D5E0022F20CEE78EC218C6DB631B6D8C60C2D75
:101D6E00B10B63103631B6D8C6DB63BB088ED048D4
:101D7E0060D8D060C36D8626DB1B6DB1936D860C6B
:101D8E00C6D860DA18EE12BD0478D636DC9B6C6DC0
:101D9E00B6C64DB7B1B7E87E10BF08086CC1820257
:101DAE000F842FFEBC202278404360C7F89DC19B54
:101DBE006C1819B6C181B184030361010DE1036092
:101DCE00CDB60C0CDB60C0CC4E0D307B83031E44B5
:101DDE00D833226DB20CDB60CDB6C18336C1888C90
:101DEE001B2207370698BC18FDB067B6DC336D832F
:101DFE0036DB060CDB06CC1BC47FFA1B6216A21761
:101E0E0088FFF9F4210D36217FFFFFFFFFFFFFABA7
:101E1E005FFF42B32E7FB4314CFA33D04782FFE9D5
:101E2E00B6C20218433284041B410DB631B0833C56
:101E3E00206674DEA0DFFFFFFFFFFFFF56BFFFFF30
:101E4E00FFFFFFC2019C1BFD19EFF0D386388306FE
:101E5E0016A7A8A482082081BFFDB33DFEE1E209CA
:101E6E0008076212B063840C19C181D84040303724
:101E7E00FFFFFFFFFFFFE100CE0D185B6C38585DD2
:101E8E00870E182C44330B0B221A0C185068EEFEDA
:101E9E0097A5F8C33B860DE182C44330B0B221A0B2
:101EAE00C3130663BBFA5E30BF0C3FFFA110CD22F9
:101EBE0021A8409833FFD2F4BFAB874AC387FFFFF8
:101ECE00FFFFC1437861B60C15D8505630C4158645
:101EDE000C14158E10466C3034CC43B334FFF70619
:101EEE002F22C61882B0C18282B1B0806336181A12
:101EFE006621D99A7E67FFFE30D3C30633C6E2FF52
:101F0E003FA7FFDCFB33FFFFFFFFFCCFFFA4122038
:101F1E00508206050840A18A9060DA080508C89428
:101F2E00C1E7FFFFD2091028410302842050C548A3
:101F3E00306D040284644A60F3FFFFFFFFC81B0884
:101F4E000B06E0E61D4202E1482103882427636F59
:101F5E00FFFFF206C2060C2DB0707840C98C2136F8
:101F6E00DEC6DF8DF4DE8218B080DE7FFFFFFFC697
:101F7E00FA6F410C58406F3FFFFFFFE37D3610C1F3
:101F8E00DB136D8819B6C1818181C142450B0C37B7
:101F9E0086080DC18FFFFC21885B620910336360D8
:101FAE00C0CDB6C4DB666DB119831F840436D8402C
:101FBE00436D840436DFF29E4414150A220A0A0A7F
:101FCE000AC288282BCBFFFFB067760E21CC1C1CD3
:101FDE002C2D85838385858585B080B070B0BC70CF
:101FEE0077FFFFFE182FC2C2C2C2E161616161615B
:101FFE00616A1682C2FC2E1010D3184040D05038A1
:10200E004040D050D833B848509CC28282829850FB
:10201E0050505050505030405030505638536DB193
:10202E0009B6C426DB10BFFFFFFFFFFFFF776BD2A1
:10203E009F467A4CC1AA67FFFFFFFA08103630861A
:10204E000CA1D88F4818255C43616E20C0E0E0E0FB
:10205E00E2103858383884EED7A53E8CF499835464
:10206E00CFC42FFFFFFFFFFFFF10BFFFFFFFFFFFDC
:10207E00FFFFFFFFFFFFFFFFFFFFFFFFFFFFF4105C
:10208E00C38C6D873084D871E0B6E10DB6116DB496
:10209E0010C6DE30711E91F41061C636C398426CC4
:1020AE0038F05B7086DB08B6DA08636F18388F4835
:1020BE00ED830A0A67828C40D82DB0EF62F13F069D
:1020CE0014F6CC8206D83030DB60C28299E0A310C1
:1020DE00360B6C3BD8BC4FC1853DB32081B60C0C82
:1020EE00360C2D8308506109B6DB6DB6DB6DB6DBA1
:1020FE006DB6DB69B67FC5C184283084DB6DB6DB77
:10210E006DB0EDB7B6DEDB41DB3FD043741010D0BF
:10211E004047FFFFFFF06E36DB6D043741010D04C3
:10212E00047FFFFFFF06E36DB6C2021B0610C4F963
:10213E0087087B627B6D9DB6C1819B6113173FE162
:10214E00010D8308627CC3843DB13DB6CEDB60C019
:10215E00CDB0898B9FF10B4106116D8C1456F08B0F
:10216E007E37E971318436C6DB6DB10B4106116DD8
:10217E008C1456F08B7E37E971318436C6DB6DBF19
:10218E000808FFFFFFFFFFFFF0808FFFFFFFFFFF3D
:10219E00FFFFFFFFFFFFFFFFFFFFFFFFFFFFFFFF41
:1021AE00FFFFFFFF10BFFFFFFFFFFFFC42FFFFFF20
:1021BE00FFFFFFFFFFFFFFFFFFFFFFFFFFFFFFFF21
:1021CE00FFF0808FFFFFFFFFFFFF0808FFFFFFFFFD
:1021DE00FFFFFFFFFFFFFFFFFFFFFFFFFFFFFFFF01
:1021EE00FFFFEBD2F4BD7D2FFFFAF22F0C1BCCF4C8
:1021FE00BC8BC306F377FFFFFFFFFFFFFFFFFFFF61
:10220E00FFFFFFFFFFFCFCCFCCFCFE67FFFF3F0C88
:10221E001BC8BD2FCCFC306F22ED3FFFFFFFFFFF31
:10222E00FFFFC0FFFFFFFFFFFFFFFFF8FCCCCF3328
:10223E0033CCCCF319FFFFFFFAF080BF4BD2F4BFC3
:10224E00FFFFFE3F399F47D178673FFFFFFE3F39C3
:10225E009F083F99E633FFFFFFF5E1011E1617E1D8
:10226E00DCF4BFFFFFFE39E18FD9CFCCF319FFFFAE
:10227E00FFF8FCCCF848A79999E633FFFFFFF73D2E
:10228E002F22F20DE1837FFFFFFC7E666798CF99C8
:10229E0099E633FFFFFFF1F9999E61CCF0599E63E9
:1022AE003FFFFFFFFFFFFF2FFFFFFFFE5E4E791781
:1022BE00FFFFFFFFFFF73FFFFFFFFFFF9CF0B0BFE9
:1022CE0020BF0B39FFFFFFF99E97917860DE67FF05
:1022DE00FFFF5D029E41BC306F253F055FFFFFD7BC
:1022EE0040A7840FC63F0853F055FFFFFD740A2C1C
:1022FE002062163188584210BC157FFFFF5D0DE13C
:10230E00036F18DBC2137E35FFFFDDDFFFFFFDDD40
:10231E00FFFFF776217885E217885E2777FFFFDDCE
:10232E00DB7EDFB7EDFB777FFFFDDDB6216D885BD2
:10233E006216D885B6277FFFFDDDB6DEDB7B6DED41
:10234E00B7B6DDFFFFF776DB62136D884DB621362B
:10235E00D884DB627FFFFDDDB6DB6DB6DB6DB6DBF1
:10236E006DB6DB7FFFFCFC154FC317917418F0534D
:10237E00FFFFFE7E0C0F3C420C588445881C31E05A
:10238E00C7FFFFFCFC19CF6C316D916D863C18FFB9
:10239E00FFFF9F8339ED881B6C181B6C47831FFF53
:1023AE00FFFFA2730C1830CC8282C2F0A0A0B0C87E
:1023BE0018282895829FFFFFFE417E1617E6666954
:1023CE00388311645FFFFFE939864B0C192730C93A
:1023DE00618325618FFFFFFE9E645869179170CB54
:1023EE0067FFFFFF08279916183116183116183196
:1023FE000459FFFFFFD27152F49C54BD2B8BFFFF8B
:10240E00FD27152F49CE97A5FFFFFFF4E6188B2960
:10241E00154188B225B0C7FFFFFE9618325860C925
:10242E00388325860C961837FFFFFE45E45E45E49B
:10243E005E45FFFFFFF99F99F99F333CC67FFFFF73
:10244E00F22C319122C8830561049645986FFFFFE7
:10245E00F4BD2F4BD2F4AE2FFFFFF208C81420A606
:10246E000A144461614444161644444445FFFFFE79
:10247E0094C306483060C192220C192483064B1077
:10248E006FFFFFFA730C45911164445912D863FF24
:10249E00FFFF49CC325860C958634BD2FFFFFFFA99
:1024AE00730C4591116444544196C40BFFFFFE100A
:1024BE004E6188B0C18822C319112C8B30DFFFFF0B
:1024CE00F4E6192C370651561832D863FFFFFF5623
:1024DE0042E45E45E45E45FFFFFFA5860C9618328A
:1024EE005860C961836633FFFFFF9164496183665B
:1024FE006678585F917FFFFFE444444444444905A5
:10250E0085860C90585860D9999FFFFFF92C31ACF5
:10251E0039F0505E83E68B30DFFFFFE4B20D999900
:10252E00E165E45E45FFFFFFAB88F4BC83799E82D4
:10253E002E2FFFFFFFF97939E45FFFFFFFFFF2F265
:10254E0073C8BFFFFFFFFFE5E4E7917FFFFFFFFFCB
:10255E00CBC9CF22FFFFFFFFFF97939E45FFFFFFE3
:10256E00FFFF2F273C8BFFFFFFFFFA79F199D1CCAC
:10257E00D50319FFFFFFA5E90CE696669666918CCA
:10258E00FFFFFFFFE339E67E67E633FFFFFFF99DAE
:10259E00032334B334B33540C67FFFFFFFD3CD2BB7
:1025AE00334BD6CFFFFFFF8406F61BC306F0C1BC2C
:1025BE00306FFFFFFFFA0646696669666A818CEB2B
:1025CE0033DFFFF4BD219CD2CCD2CCD2CCFFFFFFA7
:1025DE00F2F917917917917FFFFFFAFA5E97A5E945
:1025EE007A5E0BFFFD2F4A8E9106D20A5A4B3FFFA1
:1025FE00FFFC8BC8BC8BC8BC8BFFFFFFFC8201C2EB
:10260E00044444444444444444445FFFFFFFA43321
:10261E009A599A599A599FFFFFFFF4F34B334B3354
:10262E005B3FFFFFFFE90CE696669666918CE97AB2
:10263E00FFFFFF40C8CD2CCD2CCD50319F99F9FF17
:10264E00FFFC245E67E67E67FFFFFFFF8CE798FFC7
:10265E0033CC67FFFFFFC306F61BC306F0C1BC30C9
:10266E00FFFFFFFFD2CCD2CCD2CCD50319FFFFFF98
:10267E00FE96183666678585F917FFFFFFF911116B
:10268E00124161618324161618366667FFFFFFFA42
:10269E00C39F0E0BE0A1FA0F9FFFFFFFE961836658
:1026AE006678585F85979178BFFFFEAD1F22F0C107
:1026BE00BA373FFFFFFFF97939E45FFFFFFFFFF203
:1026CE00F273C8BFFFFFFFFFE5E4E7917FFFFFFF57
:1026DE00FFCBC9CF22FFFFFFFFFF97939E45FFFF62
:1026EE00FFFFFF2F273C8BFFFFF431545F20BF0B02
:1026FE000BF333349C4188B22FFFE17FF905F85874
:10270E005F9999A4E20C45917FFE339E3F905F85C1
:10271E0085F9999A4E20C45917FFE417E73E417E7A
:10272E001617E66669388311645FFEA21FA8B90505
:10273E00F8585F9999A4E20C45917FFE862A8BA4E6
:10274E00E2A5E938A97A5717FFF0BFF49C54BD27CC
:10275E00152F4AE2FFFC82FCE749C54BD27152F4B9
:10276E00AE2FFF510FD4549C54BD27152F4AE2FFB4
:10277E00FD0C5517C8BC8BC8BC8BC8BFFFE17FF9D9
:10278E0017917917917917FFF905F9CF917917916B
:10279E007917917FFEA21FA8B91791791791791712
:1027AE00FFFA18AA2F4E6188B2222C888B225B0C5E
:1027BE007FFFC2FFE9CC311644459111644B618F06
:1027CE00FFF20BF39E9CC311644459111644B618C4
:1027DE00FFFD443F5169CC311644459111644B6164
:1027EE008FFFF431545D2C3064B0C192C3064B0C94
:1027FE001B319FFFF85FFA5860C9618325860C96DE
:10280E001836633FFFE417E73A5860C9618325869F
:10281E000C961836633FFFA887EA2A5860C9618371
:10282E0025860C961836633FFFFFFFF8CCC325E9CB
:10283E00618366333D2F05FFFFC7161415A44111A2
:10284E00041031618310445FFFC2FFC9641B333330
:10285E00C2CBC8BC8BFFFC30506355D29860C90602
:10286E000C1832444183249060C9620DFFFFE1834E
:10287E007619C18CC30622330C1889D8606E1837AE
:10288E00860DFFFE1837770696661692F0A0DE18B4
:10289E002B0812982FFF8CC191830C2D859130B18E
:1028AE00060A0C383060AAB14C76184441830630C3
:1028BE00DFC61C3C2830D838305028D8383051B6B6
:1028CE0060C41833132186090A062186090A060CEC
:1028DE00182C3B0CC37FF8EE20C1B0C18306C30693
:1028EE000C3B0C20C1B0C18306C3060C3B0C2FFF62
:1028FE00C306EC338360C0DA4161791060C661664D
:10290E00C3062C306FFFC7190AE143887220C187B6
:10291E002618186171C41616183060C1630C30C2C7
:10292E00FFFE113517A79F199D1CCD50319FFFFF3C
:10293E00C3FFD3CF8CCE8E66A818CFFFFFC143F84E
:10294E002FA79F199D1CCD50319FFFFF8287D73D2A
:10295E003CF8CCE8E66A818CFFFFFA8BC227A79F72
:10296E00199D1CCD50319FFFFFC226A2F4F34ACC15
:10297E00D2F5B3FFFFFC3FFD3CD2B334BD6CFFFF7D
:10298E00FE0A1F5CF4F34ACCD2F5B3FFFFF51784B1
